{
  "contractName": "HospitalRecord",
  "abi": [
    {
      "anonymous": false,
      "inputs": [
        {
          "indexed": true,
          "internalType": "address",
          "name": "_address",
          "type": "address"
        },
        {
          "indexed": false,
          "internalType": "uint256",
          "name": "id",
          "type": "uint256"
        },
        {
          "indexed": false,
          "internalType": "string",
          "name": "name",
          "type": "string"
        }
      ],
      "name": "doctorRegistered",
      "type": "event"
    },
    {
      "anonymous": false,
      "inputs": [
        {
          "indexed": false,
          "internalType": "uint256",
          "name": "id",
          "type": "uint256"
        }
      ],
      "name": "patientRegistered",
      "type": "event"
    },
    {
      "constant": false,
      "inputs": [
        {
          "internalType": "string",
          "name": "_name",
          "type": "string"
        },
        {
          "internalType": "string",
          "name": "_qualification",
          "type": "string"
        },
        {
          "internalType": "string",
          "name": "_workPlace",
          "type": "string"
        }
      ],
      "name": "registerDoctor",
      "outputs": [],
      "payable": false,
      "stateMutability": "nonpayable",
      "type": "function"
    },
    {
      "constant": false,
      "inputs": [
        {
          "internalType": "string",
          "name": "_name",
          "type": "string"
        },
        {
          "internalType": "uint256",
          "name": "_age",
          "type": "uint256"
        }
      ],
      "name": "registerPatient",
      "outputs": [],
      "payable": false,
      "stateMutability": "nonpayable",
      "type": "function"
    },
    {
      "constant": false,
      "inputs": [
        {
          "internalType": "string",
          "name": "_disease",
          "type": "string"
        }
      ],
      "name": "addNewDisease",
      "outputs": [],
      "payable": false,
      "stateMutability": "nonpayable",
      "type": "function"
    },
    {
      "constant": false,
      "inputs": [
        {
          "internalType": "uint256",
          "name": "_age",
          "type": "uint256"
        }
      ],
      "name": "updateAge",
      "outputs": [],
      "payable": false,
      "stateMutability": "nonpayable",
      "type": "function"
    },
    {
      "constant": true,
      "inputs": [],
      "name": "viewRecord",
      "outputs": [
        {
          "internalType": "uint256",
          "name": "id",
          "type": "uint256"
        },
        {
          "internalType": "uint256",
          "name": "age",
          "type": "uint256"
        },
        {
          "internalType": "string",
          "name": "name",
          "type": "string"
        },
        {
          "internalType": "string",
          "name": "disease",
          "type": "string"
        }
      ],
      "payable": false,
      "stateMutability": "view",
      "type": "function"
    },
    {
      "constant": true,
      "inputs": [
        {
          "internalType": "uint256",
          "name": "_id",
          "type": "uint256"
        }
      ],
      "name": "viewPatientbyDoctor",
      "outputs": [
        {
          "internalType": "uint256",
          "name": "id",
          "type": "uint256"
        },
        {
          "internalType": "uint256",
          "name": "age",
          "type": "uint256"
        },
        {
          "internalType": "string",
          "name": "name",
          "type": "string"
        },
        {
          "internalType": "string",
          "name": "disease",
          "type": "string"
        }
      ],
      "payable": false,
      "stateMutability": "view",
      "type": "function"
    },
    {
      "constant": true,
      "inputs": [
        {
          "internalType": "uint256",
          "name": "_id",
          "type": "uint256"
        }
      ],
      "name": "viewDoctorById",
      "outputs": [
        {
          "internalType": "uint256",
          "name": "id",
          "type": "uint256"
        },
        {
          "internalType": "string",
          "name": "nmae",
          "type": "string"
        },
        {
          "internalType": "string",
          "name": "qualification",
          "type": "string"
        },
        {
          "internalType": "string",
          "name": "add",
          "type": "string"
        }
      ],
      "payable": false,
      "stateMutability": "view",
      "type": "function"
    }
  ],
  "bytecode": "0x608060405234801561001057600080fd5b506120f5806100206000396000f3fe608060405234801561001057600080fd5b506004361061007d5760003560e01c80637d625c071161005b5780637d625c07146104515780638609acde1461047f578063ddd865e814610605578063f01319ed146106c05761007d565b80632de304ed1461008257806350c7a912146101475780637a3f12ce14610330575b600080fd5b6101456004803603604081101561009857600080fd5b81019080803590602001906401000000008111156100b557600080fd5b8201836020820111156100c757600080fd5b803590602001918460018302840111640100000000831117156100e957600080fd5b91908080601f016020809104026020016040519081016040528093929190818152602001838380828437600081840152601f19601f820116905080830192505050505050509192919290803590602001909291905050506107bd565b005b61032e6004803603606081101561015d57600080fd5b810190808035906020019064010000000081111561017a57600080fd5b82018360208201111561018c57600080fd5b803590602001918460018302840111640100000000831117156101ae57600080fd5b91908080601f016020809104026020016040519081016040528093929190818152602001838380828437600081840152601f19601f8201169050808301925050505050505091929192908035906020019064010000000081111561021157600080fd5b82018360208201111561022357600080fd5b8035906020019184600183028401116401000000008311171561024557600080fd5b91908080601f016020809104026020016040519081016040528093929190818152602001838380828437600081840152601f19601f820116905080830192505050505050509192919290803590602001906401000000008111156102a857600080fd5b8201836020820111156102ba57600080fd5b803590602001918460018302840111640100000000831117156102dc57600080fd5b91908080601f016020809104026020016040519081016040528093929190818152602001838380828437600081840152601f19601f820116905080830192505050505050509192919290505050610a42565b005b61035c6004803603602081101561034657600080fd5b8101908080359060200190929190505050610ed8565b604051808581526020018481526020018060200180602001838103835285818151815260200191508051906020019080838360005b838110156103ac578082015181840152602081019050610391565b50505050905090810190601f1680156103d95780820380516001836020036101000a031916815260200191505b50838103825284818151815260200191508051906020019080838360005b838110156104125780820151818401526020810190506103f7565b50505050905090810190601f16801561043f5780820380516001836020036101000a031916815260200191505b50965050505050505060405180910390f35b61047d6004803603602081101561046757600080fd5b8101908080359060200190929190505050611209565b005b6104ab6004803603602081101561049557600080fd5b810190808035906020019092919050505061137c565b60405180858152602001806020018060200180602001848103845287818151815260200191508051906020019080838360005b838110156104f95780820151818401526020810190506104de565b50505050905090810190601f1680156105265780820380516001836020036101000a031916815260200191505b50848103835286818151815260200191508051906020019080838360005b8381101561055f578082015181840152602081019050610544565b50505050905090810190601f16801561058c5780820380516001836020036101000a031916815260200191505b50848103825285818151815260200191508051906020019080838360005b838110156105c55780820151818401526020810190506105aa565b50505050905090810190601f1680156105f25780820380516001836020036101000a031916815260200191505b5097505050505050505060405180910390f35b6106be6004803603602081101561061b57600080fd5b810190808035906020019064010000000081111561063857600080fd5b82018360208201111561064a57600080fd5b8035906020019184600183028401116401000000008311171561066c57600080fd5b91908080601f016020809104026020016040519081016040528093929190818152602001838380828437600081840152601f19601f820116905080830192505050505050509192919290505050611688565b005b6106c8611b0a565b604051808581526020018481526020018060200180602001838103835285818151815260200191508051906020019080838360005b838110156107185780820151818401526020810190506106fd565b50505050905090810190601f1680156107455780820380516001836020036101000a031916815260200191505b50838103825284818151815260200191508051906020019080838360005b8381101561077e578082015181840152602081019050610763565b50505050905090810190601f1680156107ab5780820380516001836020036101000a031916815260200191505b50965050505050505060405180910390f35b600160003373ffffffffffffffffffffffffffffffffffffffff1673ffffffffffffffffffffffffffffffffffffffff16815260200190815260200160002060040160009054906101000a900460ff1615610863576040517f08c379a00000000000000000000000000000000000000000000000000000000081526004018080602001828103825260228152602001806120776022913960400191505060405180910390fd5b6000600160003373ffffffffffffffffffffffffffffffffffffffff1673ffffffffffffffffffffffffffffffffffffffff16815260200190815260200160002090506004600081548092919060010191905055506004548160000181905550828160010190805190602001906108db929190611e1c565b5081816002018190555060018160040160006101000a81548160ff0219169083151502179055506002600160003373ffffffffffffffffffffffffffffffffffffffff1673ffffffffffffffffffffffffffffffffffffffff16815260200190815260200160002090806001815401808255809150509060018203906000526020600020906005020160009091929091909150600082015481600001556001820181600101908054600181600116156101000203166002900461099f929190611e9c565b5060028201548160020155600382018160030190805460018160011615610100020316600290046109d1929190611f23565b506004820160009054906101000a900460ff168160040160006101000a81548160ff0219169083151502179055505050507f97a88e9b8b274762d65e2ac0206ababe9d1ae5bde620477ed37ba349f792045681600001546040518082815260200191505060405180910390a1505050565b6000803373ffffffffffffffffffffffffffffffffffffffff1673ffffffffffffffffffffffffffffffffffffffff16815260200190815260200160002060040160009054906101000a900460ff1615610b04576040517f08c379a000000000000000000000000000000000000000000000000000000000815260040180806020018281038252601a8152602001807f596f752061726520616c7265616479207265676973746572656400000000000081525060200191505060405180910390fd5b6005600081548092919060010191905055506005546000803373ffffffffffffffffffffffffffffffffffffffff1673ffffffffffffffffffffffffffffffffffffffff16815260200190815260200160002060000181905550826000803373ffffffffffffffffffffffffffffffffffffffff1673ffffffffffffffffffffffffffffffffffffffff1681526020019081526020016000206001019080519060200190610bb3929190611e1c565b50816000803373ffffffffffffffffffffffffffffffffffffffff1673ffffffffffffffffffffffffffffffffffffffff1681526020019081526020016000206002019080519060200190610c09929190611e1c565b50806000803373ffffffffffffffffffffffffffffffffffffffff1673ffffffffffffffffffffffffffffffffffffffff1681526020019081526020016000206003019080519060200190610c5f929190611e1c565b5060016000803373ffffffffffffffffffffffffffffffffffffffff1673ffffffffffffffffffffffffffffffffffffffff16815260200190815260200160002060040160006101000a81548160ff02191690831515021790555060036000803373ffffffffffffffffffffffffffffffffffffffff1673ffffffffffffffffffffffffffffffffffffffff168152602001908152602001600020908060018154018082558091505090600182039060005260206000209060050201600090919290919091506000820154816000015560018201816001019080546001816001161561010002031660029004610d56929190611e9c565b5060028201816002019080546001816001161561010002031660029004610d7e929190611e9c565b5060038201816003019080546001816001161561010002031660029004610da6929190611e9c565b506004820160009054906101000a900460ff168160040160006101000a81548160ff0219169083151502179055505050503373ffffffffffffffffffffffffffffffffffffffff167fc6ee07d02c7386883a4330b63bad26c8c54ef9a12fa49175cd76e939dfb120ee6000803373ffffffffffffffffffffffffffffffffffffffff1673ffffffffffffffffffffffffffffffffffffffff16815260200190815260200160002060000154856040518083815260200180602001828103825283818151815260200191508051906020019080838360005b83811015610e98578082015181840152602081019050610e7d565b50505050905090810190601f168015610ec55780820380516001836020036101000a031916815260200191505b50935050505060405180910390a2505050565b6000806060806000803373ffffffffffffffffffffffffffffffffffffffff1673ffffffffffffffffffffffffffffffffffffffff16815260200190815260200160002060040160009054906101000a900460ff16610f9f576040517f08c379a000000000000000000000000000000000000000000000000000000000815260040180806020018281038252601f8152602001807f596f7520617265206e6f742061207265676973746572656420646f63746f720081525060200191505060405180910390fd5b600454851115610ffa576040517f08c379a00000000000000000000000000000000000000000000000000000000081526004018080602001828103825260288152602001806120996028913960400191505060405180910390fd5b60008090505b60028054905081101561120057856002828154811061101b57fe5b90600052602060002090600502016000015414156111f3576002818154811061104057fe5b9060005260206000209060050201600001546002828154811061105f57fe5b9060005260206000209060050201600201546002838154811061107e57fe5b90600052602060002090600502016001016002848154811061109c57fe5b9060005260206000209060050201600301818054600181600116156101000203166002900480601f0160208091040260200160405190810160405280929190818152602001828054600181600116156101000203166002900480156111425780601f1061111757610100808354040283529160200191611142565b820191906000526020600020905b81548152906001019060200180831161112557829003601f168201915b50505050509150808054600181600116156101000203166002900480601f0160208091040260200160405190810160405280929190818152602001828054600181600116156101000203166002900480156111de5780601f106111b3576101008083540402835291602001916111de565b820191906000526020600020905b8154815290600101906020018083116111c157829003601f168201915b50505050509050945094509450945050611202565b8080600101915050611000565b505b9193509193565b600160003373ffffffffffffffffffffffffffffffffffffffff1673ffffffffffffffffffffffffffffffffffffffff16815260200190815260200160002060040160009054906101000a900460ff166112cb576040517f08c379a00000000000000000000000000000000000000000000000000000000081526004018080602001828103825260168152602001807f596f7520617265206e6f7420726567697374657265640000000000000000000081525060200191505060405180910390fd5b80600160003373ffffffffffffffffffffffffffffffffffffffff1673ffffffffffffffffffffffffffffffffffffffff1681526020019081526020016000206002018190555080600260018060003373ffffffffffffffffffffffffffffffffffffffff1673ffffffffffffffffffffffffffffffffffffffff16815260200190815260200160002060000154038154811061136457fe5b90600052602060002090600502016002018190555050565b600060608060606005548511156113de576040517f08c379a00000000000000000000000000000000000000000000000000000000081526004018080602001828103825260278152602001806120506027913960400191505060405180910390fd5b60008090505b60038054905081101561167f5785600382815481106113ff57fe5b9060005260206000209060050201600001541415611672576003818154811061142457fe5b9060005260206000209060050201600001546003828154811061144357fe5b90600052602060002090600502016001016003838154811061146157fe5b90600052602060002090600502016002016003848154811061147f57fe5b9060005260206000209060050201600301828054600181600116156101000203166002900480601f0160208091040260200160405190810160405280929190818152602001828054600181600116156101000203166002900480156115255780601f106114fa57610100808354040283529160200191611525565b820191906000526020600020905b81548152906001019060200180831161150857829003601f168201915b50505050509250818054600181600116156101000203166002900480601f0160208091040260200160405190810160405280929190818152602001828054600181600116156101000203166002900480156115c15780601f10611596576101008083540402835291602001916115c1565b820191906000526020600020905b8154815290600101906020018083116115a457829003601f168201915b50505050509150808054600181600116156101000203166002900480601f01602080910402602001604051908101604052809291908181526020018280546001816001161561010002031660029004801561165d5780601f106116325761010080835404028352916020019161165d565b820191906000526020600020905b81548152906001019060200180831161164057829003601f168201915b50505050509050945094509450945050611681565b80806001019150506113e4565b505b9193509193565b600160003373ffffffffffffffffffffffffffffffffffffffff1673ffffffffffffffffffffffffffffffffffffffff16815260200190815260200160002060040160009054906101000a900460ff1661174a576040517f08c379a00000000000000000000000000000000000000000000000000000000081526004018080602001828103825260168152602001807f596f7520617265206e6f7420726567697374657265640000000000000000000081525060200191505060405180910390fd5b6060600160003373ffffffffffffffffffffffffffffffffffffffff1673ffffffffffffffffffffffffffffffffffffffff1681526020019081526020016000206003018054600181600116156101000203166002900480601f0160208091040260200160405190810160405280929190818152602001828054600181600116156101000203166002900480156118225780601f106117f757610100808354040283529160200191611822565b820191906000526020600020905b81548152906001019060200180831161180557829003601f168201915b50505050509050806040516020018082805190602001908083835b60208310611860578051825260208201915060208101905060208303925061183d565b6001836020036101000a038019825116818451168082178552505050505050905001807f2c20000000000000000000000000000000000000000000000000000000000000815250600201915050604051602081830303815290604052905080826040516020018083805190602001908083835b602083106118f657805182526020820191506020810190506020830392506118d3565b6001836020036101000a03801982511681845116808217855250505050505090500182805190602001908083835b602083106119475780518252602082019150602081019050602083039250611924565b6001836020036101000a03801982511681845116808217855250505050505090500192505050604051602081830303815290604052600160003373ffffffffffffffffffffffffffffffffffffffff1673ffffffffffffffffffffffffffffffffffffffff16815260200190815260200160002060030190805190602001906119d1929190611faa565b5080826040516020018083805190602001908083835b60208310611a0a57805182526020820191506020810190506020830392506119e7565b6001836020036101000a03801982511681845116808217855250505050505090500182805190602001908083835b60208310611a5b5780518252602082019150602081019050602083039250611a38565b6001836020036101000a03801982511681845116808217855250505050505090500192505050604051602081830303815290604052600260018060003373ffffffffffffffffffffffffffffffffffffffff1673ffffffffffffffffffffffffffffffffffffffff168152602001908152602001600020600001540381548110611ae157fe5b90600052602060002090600502016003019080519060200190611b05929190611faa565b505050565b600080606080600160003373ffffffffffffffffffffffffffffffffffffffff1673ffffffffffffffffffffffffffffffffffffffff16815260200190815260200160002060040160009054906101000a900460ff16611bd2576040517f08c379a00000000000000000000000000000000000000000000000000000000081526004018080602001828103825260168152602001807f596f7520617265206e6f7420726567697374657265640000000000000000000081525060200191505060405180910390fd5b600160003373ffffffffffffffffffffffffffffffffffffffff1673ffffffffffffffffffffffffffffffffffffffff168152602001908152602001600020600001549350600160003373ffffffffffffffffffffffffffffffffffffffff1673ffffffffffffffffffffffffffffffffffffffff168152602001908152602001600020600201549250600160003373ffffffffffffffffffffffffffffffffffffffff1673ffffffffffffffffffffffffffffffffffffffff1681526020019081526020016000206001018054600181600116156101000203166002900480601f016020809104026020016040519081016040528092919081815260200182805460018160011615610100020316600290048015611d325780601f10611d0757610100808354040283529160200191611d32565b820191906000526020600020905b815481529060010190602001808311611d1557829003601f168201915b50505050509150600160003373ffffffffffffffffffffffffffffffffffffffff1673ffffffffffffffffffffffffffffffffffffffff1681526020019081526020016000206003018054600181600116156101000203166002900480601f016020809104026020016040519081016040528092919081815260200182805460018160011615610100020316600290048015611e0f5780601f10611de457610100808354040283529160200191611e0f565b820191906000526020600020905b815481529060010190602001808311611df257829003601f168201915b5050505050905090919293565b828054600181600116156101000203166002900490600052602060002090601f016020900481019282601f10611e5d57805160ff1916838001178555611e8b565b82800160010185558215611e8b579182015b82811115611e8a578251825591602001919060010190611e6f565b5b509050611e98919061202a565b5090565b828054600181600116156101000203166002900490600052602060002090601f016020900481019282601f10611ed55780548555611f12565b82800160010185558215611f1257600052602060002091601f016020900482015b82811115611f11578254825591600101919060010190611ef6565b5b509050611f1f919061202a565b5090565b828054600181600116156101000203166002900490600052602060002090601f016020900481019282601f10611f5c5780548555611f99565b82800160010185558215611f9957600052602060002091601f016020900482015b82811115611f98578254825591600101919060010190611f7d565b5b509050611fa6919061202a565b5090565b828054600181600116156101000203166002900490600052602060002090601f016020900481019282601f10611feb57805160ff1916838001178555612019565b82800160010185558215612019579182015b82811115612018578251825591602001919060010190611ffd565b5b509050612026919061202a565b5090565b61204c91905b80821115612048576000816000905550600101612030565b5090565b9056fe54686520646f63746f72207769746820676976656e20496420646f6573206e6f74206578697374596f752061726520616c726561647920726567697374657265642070617469656e745468652070617469656e74207769746820676976656e20496420646f6573206e6f74206578697374a265627a7a72315820fde2feced1ee11f5e561a2a12fbce1e2eca64734c3b9bf9ab8f9e086560e7ddd64736f6c63430005100032",
  "source": "// SPDX-License-Identifier: MIT\npragma solidity >=0.4.21 <0.7.0;\n\n//This contract does not require any inheritance so I am doing it under LibraryDemo.sol in the contracts folder itself\n\n/** @title Hospital Record. */\ncontract HospitalRecord{\n\n\n    //a struct for a doctor storing his ID, name, qualification, workplace and a boolean to check if he is already registered\n    struct Doctor{\n        uint id;\n        string name;\n        string qualification;\n        string workPlace;\n        bool registered;\n        // as a proof upload a certificate of ur degree or a certified doctor on ipfs and upload a hash value here\n    }\n\n    // a struct for patient storing his Id,name,age,disease and boolean to check if he is registered\n    struct Patient{\n        uint Id;\n        string name;\n        uint age;\n        bytes disease;\n        bool Registered;\n    }\n\n    // mapping to map each struct with the address\n    mapping(address => Doctor) doctors;\n    mapping(address => Patient) patients;\n\n    Patient[] patient_record;\n    Doctor[] doctor_record;\n    uint patient_id;\n    uint doctor_id;\n\n    // events to record some data\n    event doctorRegistered(address indexed _address,uint id,string name);\n    event patientRegistered(uint id);\n\n    // modifiers \n    modifier onlyPatient{\n        require(patients[msg.sender].Registered,\"You are not registered\");\n        _;\n    }\n\n    modifier onlyDoctor{\n        require(doctors[msg.sender].registered,\"You are not a registered doctor\");\n        _;\n    }\n\n\n    /**  \n        @dev Registers a user as a doctor\n        @param _name Name of the user\n        @param _qualification Which degree he/she holds as a doctor\n        @param _workPlace Address of his/her hospital/clinic\n    */\n    function registerDoctor(string memory _name,string memory _qualification,string memory _workPlace) public {\n\n        require(!doctors[msg.sender].registered,\"You are already registered\");\n        doctor_id++;\n        doctors[msg.sender].id = doctor_id;\n        doctors[msg.sender].name = _name;\n        doctors[msg.sender].qualification = _qualification;\n        doctors[msg.sender].workPlace = _workPlace;\n        doctors[msg.sender].registered = true;\n        doctor_record.push(doctors[msg.sender]);\n        emit doctorRegistered(msg.sender,doctors[msg.sender].id,_name);\n\n    }\n\n    /**\n        @dev Registers a user as patient\n        @param _name Name of the user\n        @param _age Age of user\n    */\n    function registerPatient(string memory _name,uint _age) public {\n\n        require(!patients[msg.sender].Registered,\"You are already registered patient\");\n        Patient storage patient = patients[msg.sender];\n        patient_id++;\n        patient.Id = patient_id;\n        patient.name = _name;\n        patient.age = _age;\n        patient.Registered = true;\n        patient_record.push(patients[msg.sender]);\n        emit patientRegistered(patient.Id);\n\n    }\n\n    /**\n        @dev Add new disease to a registered Patient (only one disease at a time)\n        @param _disease Name of the disease\n    */\n    function addNewDisease(string memory _disease) public onlyPatient{\n\n        string memory init = string(patients[msg.sender].disease);\n        init = string(abi.encodePacked(init,\", \"));\n        patients[msg.sender].disease = abi.encodePacked(init,_disease);\n        patient_record[patients[msg.sender].Id - 1].disease = abi.encodePacked(init,_disease);\n\n    }\n\n    /**\n        @dev Updates the age of the registered Patient\n        @param _age New age of the patient\n    */\n    function updateAge(uint _age) public onlyPatient{\n\n        patients[msg.sender].age = _age;\n        patient_record[patients[msg.sender].Id - 1].age = _age;\n\n    }\n\n    /**\n        @dev View record of the Patient only by himself\n        @return id Id of the patient\n        @return age Age of the patient\n        @return name Name of the patient\n        @return disease All the disease of the patient\n    */\n    function viewRecord() public view onlyPatient returns(uint id,uint age,string memory name,string memory disease){\n\n         id = patients[msg.sender].Id;\n         age = patients[msg.sender].age;\n         name = patients[msg.sender].name;\n         disease = string(patients[msg.sender].disease);\n\n    }\n\n    /**\n        @dev View record of the Patient only by registered doctor\n        @param _id ID of the patient\n        @return id ID of the patient\n        @return age Age of the patient\n        @return name Name of the patient\n        @return disease All the disease of the patient\n    */\n    function viewPatientbyDoctor(uint _id) public view onlyDoctor returns(uint id,uint age,string memory name,string memory disease){\n        \n        require(_id <= patient_id,\"The patient with given Id does not exist\");\n         for(uint i = 0 ;i < patient_record.length;i++){\n             if(patient_record[i].Id == _id){\n                 return (patient_record[i].Id,patient_record[i].age,patient_record[i].name,string(patient_record[i].disease));\n             }\n        }\n\n    }\n\n    /**\n        @dev View record of the Doctor by anyone\n        @param _id ID of the doctor\n        @return id ID of the doctor\n        @return nmae Name of the doctor\n        @return qualification Which degree he/she holds as a doctor\n        @return add Address of his/her hospital/clinic\n    */\n    function viewDoctorById(uint _id) public view returns(uint id,string memory nmae,string memory qualification,string memory add){\n       \n        require(_id <= doctor_id,\"The doctor with given Id does not exist\");\n        for(uint i = 0;i < doctor_record.length;i++){\n            if(doctor_record[i].id == _id){\n                return (doctor_record[i].id,doctor_record[i].name,doctor_record[i].qualification,doctor_record[i].workPlace);\n            }\n        }\n        \n    }\n}",
  "sourcePath": "/home/ajay/Placement/Dapp-HospitalRecord-master/contracts/HospitalRecord.sol",
  "compiler": {
    "name": "solc",
    "version": "0.5.16+commit.9c3226ce.Emscripten.clang"
  },
  "schemaVersion": "3.4.10",
  "updatedAt": "2022-09-15T16:43:31.429Z",
  "networkType": "ethereum",
  "devdoc": {
    "methods": {
      "addNewDisease(string)": {
        "details": "Add new disease to a registered Patient (only one disease at a time)",
        "params": {
          "_disease": "Name of the disease"
        }
      },
      "registerDoctor(string,string,string)": {
        "details": "Registers a user as a doctor",
        "params": {
          "_name": "Name of the user",
          "_qualification": "Which degree he/she holds as a doctor",
          "_workPlace": "Address of his/her hospital/clinic"
        }
      },
      "registerPatient(string,uint256)": {
        "details": "Registers a user as patient",
        "params": {
          "_age": "Age of user",
          "_name": "Name of the user"
        }
      },
      "updateAge(uint256)": {
        "details": "Updates the age of the registered Patient",
        "params": {
          "_age": "New age of the patient"
        }
      },
      "viewDoctorById(uint256)": {
        "details": "View record of the Doctor by anyone",
        "params": {
          "_id": "ID of the doctor"
        },
        "return": "id ID of the doctornmae Name of the doctorqualification Which degree he/she holds as a doctoradd Address of his/her hospital/clinic"
      },
      "viewPatientbyDoctor(uint256)": {
        "details": "View record of the Patient only by registered doctor",
        "params": {
          "_id": "ID of the patient"
        },
        "return": "id ID of the patientage Age of the patientname Name of the patientdisease All the disease of the patient"
      },
      "viewRecord()": {
        "details": "View record of the Patient only by himself",
        "return": "id Id of the patientage Age of the patientname Name of the patientdisease All the disease of the patient"
      }
    },
    "title": "Hospital Record. "
  },
  "userdoc": {
    "methods": {}
  }
}